:100000000C9455030C947D030C947D030C947D0398
:100010000C947D030C947D030C947D030C947D0360
:100020000C947D030C9487040C947D030C947D0345
:100030000C947D030C944A040C947D030C947D0372
:100040000C947D030C947D030C947D030C947D0330
:100050000C947D030C947D030C947D030C947D0320
:100060000C947D030C947D03FFFF00FF0000000053
:10007000FF00FFFFFFFFFF00FFFFFFEA804AFFFFD7
:10008000000000000000000000FF00FFFFFFFF0075
:1000900000FFFF0000FFFFFFFF00000000FF000067
:1000A00000FF000000000015000000FF0000FFFF3F
:1000B00000000000FFFFFFFF15FFFFFFFFFFFFFF36
:1000C000FF000000000000000000FFFFFF00FFFF36
:1000D000000000FFFFFFFFFFFFFF00FFFFFFFFFF2C
:1000E000000000FFFF00B500FFFF0000000000005F
:1000F0008000EA8015004A00FFFFFFFF000080FF3C
:100100008000FFFFFFFF4AFF00FFFF000000FF002D
:10011000FF15FF00000000FFFF004A00FF00000085
:1001200000FF15FF000000FFFFFFFF00150000FFAC
:10013000FF00FF4A001500FFFFFFFF00FF004A001D
:10014000000000000000000000FFFF000000FFFFB3
:1001500000FFFFFFFFFF00FFFF00EA000000FFFFBE
:10016000FF000000FF0000000000FFFFFFFFFFFF97
:10017000FFEA000000000000004AFF000000004A03
:1001800000FFFFFFFFFFFFFFFF4A0000FF0000002E
:100190000000000000FFFF7F80FFFFFFFFFF000067
:1001A0000000000000FFFFFFFFFFFFFFFFFF004A0E
:1001B000000000800000FFFFFF00000000000000C2
:1001C00000FFFFFFFFFFFFFF0000FF000000FF0038
:1001D0000000FF000000FFFFFFFFFFFFFFFFFF0029
:1001E0000000FFFF0000FFFFFFFFFFFF15FFFFFF05
:1001F0000000FFFF0000FF00000000000000000002
:1002000080FFFF150000FFFFFF001515FFFFFFFF38
:10021000FFFFFFFFFFFF00000000000000000000E4
:1002200000FF15FFFFFFFF0000B50000000000FF0A
:10023000FFFF00FFFFFFFFEAFFFF00000000FF805D
:10024000800000FFFFFFB500001500000000FFFF69
:10025000FFFFFFFFFFFF000000000000000000FFA5
:10026000FF00FFFFFFFFB50000000000FF0000EAF5
:10027000FFFFFFFFFFFFFFFF000000000000000086
:1002800000FFFFFFFFFFFFFFFFFF15FFFF15FFFF51
:10029000000000000000FFFFB5FFFFFF00000000AE
:1002A00000000000000000FFFFFFFFFFFFFFFFFF57
:1002B000FFFFFF00000000000000FFFFFFFFFFFF47
:1002C000FF00FFFF000000EAFFFFFF00000000004A
:1002D000EA000000000000000000FFFFFF004A806D
:1002E000FFFFFFFF004A00000000000000FFFFFFCB
:1002F000FFFFFFFFFFFF00B500000000000000004F
:100300000000FFFFFFFF80B5FFFFB5000000000009
:1003100000000000FF0000FF00000000000000FFE0
:10032000FFFF00000000FF15FFFFFFFFFFFFFFFFC3
:10033000EA00FFFFFF0000FFFFEA000000000000EE
:100340000000000000FFFFFFFFFFFFFFFF000000B5
:100350000000000000000000FFFFFFFFFFFFFFFFA5
:10036000FFFF000000000000000000FF0000FFFF92
:100370001500FFFFFFFFFFFFFFFFFF000000000071
:100380000000000000000000FFFFFF00FFFFFFFF74
:1003900080EA000000150080000000000000001549
:1003A000FFFFFFFFFFFFFFFF00000000000000FF56
:1003B000FFFFFFFFFFFFFFFF0000000000FFFF7FC8
:1003C0004AFFFFFFB5000000000000000000FFFF33
:1003D000FFFFFFFFFFFF0000004A00004A80EA0025
:1003E00000FFFFFF0000FFFFEAEA0000000000003E
:1003F0000000FFFFFFFFFFFFFF8000000000000084
:10040000000000FFFFFFFFFF4A00000000000000A7
:10041000FFFFFFFFFF0000000000000000B5FFFF2E
:10042000FFFFFFFFFF004A004A000000000000003D
:100430004AFFFFFFFFFFFF00000000000000000078
:10044000004AFFFFFFFFFFFFFFFFFFFFFFFF00006E
:1004500000000000EA00FF80FFFFFF150000000021
:1004600000FF00B5FFFFFF000000000000150000C6
:100470000015FF4A000000FFFFFFFFFFFFFFFFFF27
:10048000FF80000000001500FFB54A0000004AB5DB
:100490000000FFFFFFFFFF4A00FFFFFFFF7F00B5E7
:1004A000EA00000000000000000015FFFFFFFF4A07
:1004B0007F157F0000FFFFB5FFFFFFEAFFFFFFFF93
:1004C000FF1515000000007FFFFFFFFFFFFFFFFF8C
:1004D000000000000000000000FFFFFFFFFFFFFF23
:1004E000EA7FFFFF4A000000000000FFFFFFFFFF60
:1004F000FFFFFFB500000000000015FFFFFFFFFF3A
:10050000FFFF15B515B5EAB5000000EA8000B5FF9C
:10051000FFFFFFFF4A000000000000000000000095
:10052000B5FFFFFFFFFFFFFFFFFF4A1500000000C0
:1005300000000000000000000000000000FFFFFFBE
:10054000FFFFFFFFFFB5FFFFFF80FFFFFFFFFFFF84
:10055000FFFF4A0000000000000000154A0000B53F
:10056000B50000FFFFFFFFFFEAFFFFFFFFFFFF15E2
:100570000080FFFF0000FFFFFF804AB5B50015FFB8
:100580007FEA0000EAB5B515007FB50080FFFFFFE8
:10059000EAFFFFFFFFFFFFEA7F000000000000000E
:1005A00000B5B50000B5FF000000FFFFFFFFFFFF33
:1005B000FFFF7FEAFFFF1580FFFFFFFFFF00000046
:1005C00000000000007F80157FFFFFB500151500BB
:1005D0000000154A0000B5FFFFFFFFFFFFFFFFEA25
:1005E000EAFFFF00000000FFFFFFEA4A801500005D
:1005F0000000B5FF1500B5FF150000000000000069
:100600007FFFFFFFFFFFFFFFFF150000000000005E
:10061000004A15EA1500154AB54A0000000000001E
:10062000000000000000B5FFFF80EAFFEA7FEAFF5C
:1006300000004A7FEA4A00001580EA150080800029
:100640000000000000000000004A4AB5FFFFFFFF65
:10065000FFFFFFFFFFB5B5B5B5007FFFFFFF15003A
:100660000000000000000000007FFFFFFFFFFFFF11
:100670008000B5FFFFFFFFFFFFFFFFB5B5000000E3
:1006800000154A4A00000000000015B5EAEAFFFF25
:10069000FFFFFFEA7F0000008080000080EAEAFFA1
:1006A000FFFFB5FFFFFFFF80D60411241FBECFEF71
:1006B000D8E0DEBFCDBF13E0A0E0B1E0E0EDFDE2A9
:1006C00002C005900D92A834B107D9F714E0A8E450
:1006D000B3E001C01D92A232B107E1F716E0CAEA09
:1006E000D6E004C02297FE010E947012C83AD107DA
:1006F000C9F70E943A050C94E6160C940000FC0120
:10070000DB0111968C91119790E0815490408230DA
:10071000910519F00397B9F40BC088E290E0928339
:10072000818387E290E09483838386E290E015C022
:100730008BE290E0928381838AE290E094838383CA
:1007400089E290E00AC085E290E09283818384E2AE
:1007500090E09483838383E290E09683858312966E
:100760002C9130E02053304081E090E002C0880FAF
:10077000991F2A95E2F78083089585BD66BD81E0C3
:1007800080936E000895809381007093850060933C
:10079000840081E080936F0008958093B10060939E
:1007A000B20081E08093700008956295660F660F35
:1007B000607C382F3370632B50E04370507074E0CE
:1007C000440F551F7A95E1F7642B64BD277090E0C4
:1007D0008470907033E0880F991F3A95E1F7282BC9
:1007E00025BD0895982F80538A3068F081538A314F
:1007F00010F4865F0895892F81548A3110F0892F73
:100800000895892F8753089580937C00EAE7F0E0EC
:1008100087EE808380E29EE40197F1F7E0812091EA
:10082000780030917900C9010895382F662359F076
:1008300025B181E090E002C0880F991F3A95E2F758
:10084000282B25B9089525B181E090E002C0880FDA
:10085000991F3A95E2F78095822385B90895982FDC
:100860008091C00085FFFCCF9093C60080E090E0AF
:100870000895681779072CF4481759074CF4AC0110
:1008800007C0481759071CF0461757070CF4AB016F
:10089000CA0108951F920F920FB60F9211248F93E1
:1008A0009F93AF93BF9386E09FEF909385008093D3
:1008B00084008091C3039091C403A091C503B091BB
:1008C000C6030196A11DB11D8093C3039093C40379
:1008D000A093C503B093C603BF91AF919F918F9131
:1008E0000F900FBE0F901F9018958EBD0DB407FE90
:1008F000FDCF8EB508950E94150408956091C3033D
:100900007091C4038091C5039091C60308951F920E
:100910000F920FB60F9211242F938F939F93AF9343
:10092000BF93EF93FF9386E08093B2008091BF0363
:100930009091C003A091C103B091C203803426E01E
:10094000920720E0A20720E0B20730F4FC01E8594A
:10095000FF4FE491E7BD0BC01092BF031092C0039C
:100960001092C1031092C2035698109270008091A9
:10097000BF039091C003A091C103B091C20301963F
:10098000A11DB11D8093BF039093C003A093C10329
:10099000B093C203FF91EF91BF91AF919F918F915F
:1009A0002F910F900FBE0F901F9018950F931F93CC
:1009B000DF93CF93CDB7DEB76C970FB6F894DEBF59
:1009C0000FBECDBF10924E038E01015F1F4FC801B5
:1009D00060E071E00E947F03CE01469664E071E022
:1009E0000E947F03DE011896F80187E001900D92C6
:1009F0008150E1F72B853C854885DE011196FE018B
:100A0000769687E001900D928150E1F7EC81FD81AF
:100A10009981D9018C91842B8C9380819095982316
:100A2000908386EC90E0909352038093510380EC86
:100A300090E0909354038093530381EC90E0909363
:100A400056038093550382EC90E090935803809373
:100A5000570384EC90E090935A03809359036C966B
:100A60000FB6F894DEBF0FBECDBFCF91DF911F91BF
:100A70000F9108952F923F924F925F926F927F92C3
:100A80008F929F92AF92BF92CF92DF92EF92FF929E
:100A90000F931F93CF93DF938FE294E060E070E0B9
:100AA0000E94741290931B0480931A0488E893E1C7
:100AB00020E931E0F9013197F1F70197D9F717B83B
:100AC00016E014B9539A87E063E040E021E00E9409
:100AD000D50383E0809381008CE396EF90938500AB
:100AE0008093840081E080936F0082E08093B10066
:100AF0001093B200E0915503F09156038081886015
:100B00008083A0915703B09158038C9186FD9CC2BD
:100B10008C9187FD99C2E0915303F0915403808139
:100B200081FF07C0E0915903F0915A038FEC90E0E8
:100B300010C0E0915903F0915A0387E690E009C094
:100B40008C9187FF08C0E0915903F0915A0380E42B
:100B500093E0918380838C91887F84608C9384B1AF
:100B600090914E03892B886284B9249882E58CBDCC
:100B700085B19095982395B97894A0915903B09137
:100B80005A03ED90FC901197E0915703F0915803B0
:100B9000808186FD5DC2808187FD5AC2E09153034A
:100BA000F0915403808181FF0AC02D913C912F5F09
:100BB0003F4FB3E0220F331FBA95E1F713C02D91D9
:100BC0003C912F5F3F4FA4E0220F331FAA95E1F71E
:100BD00009C0808187FF15C02D913C912F5F3F4F49
:100BE000220F331F40E050E060E074E284EF90E0B9
:100BF0000E944C12CA01B9010E9414119B01AC0160
:100C000004C020E030E040E85FEB00D000D000D02E
:100C10000DB71EB70F5F1F4F88E091E0ADB7BEB7AD
:100C200012969C938E931197F801F382E282CA0187
:100C3000B9010E94E310D80115967C936E93149726
:100C40000E94C012A6E3B1E0EDB7FEB736960FB62C
:100C5000F894FEBF0FBEEDBF09C0808185FFFDCFB8
:100C6000E0915103F0915203908311969C91992346
:100C700029F0E0915303F0915403EFCF88EB9BE010
:100C800020E931E0F9013197F1F70197D9F7AEE3A7
:100C9000B1E009C0808185FFFDCFE0915103F09163
:100CA0005203908311969C91992329F0E09153036C
:100CB000F0915403EFCFC0E9D1E0E8E32E2EEAE44F
:100CC0003E2E412C512C10927C00F7EEF0937A00CE
:100CD00080E29EE40197F1F780917A00009178001C
:100CE000109179001093F0030093EF03C0906C0112
:100CF000D0906D01E0906E01F0906F01C701B601D8
:100D00000E94141120E030E040E85BE30E94CA1129
:100D100020E030E04AE754E40E94CA110E94E31048
:100D20004DB75EB74C5050400FB6F8945EBF0FBE43
:100D30004DBFEDB7FEB7319644E451E0ADB7BEB755
:100D400012965C934E931197138302832091F503BF
:100D50003091F603021B130B15830483D782C682DE
:100D600068517C4F71876087685E734088E39AE4BE
:100D7000861B970B938782870E94C0122091EF03F6
:100D80003091F0038091F5039091F603D901A81BEF
:100D9000B90BEDB7FEB73C960FB6F894FEBF0FBE89
:100DA000EDBFAC34B1050CF15E98569AF1E0F093CA
:100DB00070008091C3039091C403A091C503B091CA
:100DC000C6038093140490931504A0931604B09363
:100DD00017048CE99FEFAFEFBFEF80936C01909306
:100DE0006D01A0936E01B0936F013093F6032093D1
:100DF000F5035B9A60906C0170906D0180906E01BC
:100E000090906F01C401B30168517C4F8F4F9F4F89
:100E10000E9414115B016C012BEA3AEA4AEA50E4A1
:100E20000E94CA117B018C0120E030E040E85FE3C2
:100E30000E947710882314F461E052C0C801B70102
:100E400020E030E04FE753E40E94C61118160CF082
:100E500043C0C601B50120E030E04AE754E40E94F7
:100E60007B105B016C0120E030E04AE755E40E9412
:100E7000CA117B018C0120E030E040E85FE30E9472
:100E8000771088231CF461E070E022C0C801B7012C
:100E900020E03FEF4FE757E40E94C6111816A4F474
:100EA000C601B50120E030E040E251E40E94CA11E1
:100EB0000E94E81005C0CE010197F1F76150704023
:100EC00061157105C1F70EC0C801B7010E94E81095
:100ED000CB010197F1F706C0C801B7010E94E810E5
:100EE0006A95F1F75B98C201B10166197709880923
:100EF00099090E9414115B016C012BEA3AEA4AEA53
:100F000050E40E94CA117B018C0120E030E040E8EF
:100F10005FE30E947710882314F461E052C0C80197
:100F2000B70120E030E04FE753E40E94C6111816E5
:100F30000CF043C0C601B50120E030E04AE754E4BC
:100F40000E947B105B016C0120E030E04AE755E431
:100F50000E94CA117B018C0120E030E040E85FE391
:100F60000E94771088231CF461E070E022C0C80161
:100F7000B70120E03FEF4FE757E40E94C611181673
:100F8000A4F4C601B50120E030E040E251E40E9443
:100F9000CA110E94E81005C0CE010197F1F7615017
:100FA000704061157105C1F70EC0C801B7010E94FC
:100FB000E810CB010197F1F706C0C801B7010E9404
:100FC000E8106A95F1F72091C3033091C403409172
:100FD000C5035091C6038091140490911504A0910B
:100FE0001604B0911704281B390B4A0B5B0B253FE5
:100FF00091E0390790E0490790E0590708F463CE83
:10100000203DA7E03A07A0E04A07A0E05A0708F011
:101010005ACECA01B90124E833E040E050E00E9412
:101020002D12605D7D4D864090402CED35E040E016
:1010300050E00E944C1220936C0130936D0140935C
:101040006E0150936F013FCE8C9186FF84CD78CD99
:10105000808186FFD6CDBDCDAC019B0146175707D9
:101060000CF49A01C9010895AC019B01641775073E
:101070000CF49A01C9010895FC016083418381E069
:101080008283138280E28483158216821086118601
:101090001286138614861586168617860895FC0117
:1010A0006083418381E08283138280E2848315829E
:1010B0001682108611861286138614861586168669
:1010C00017860895FC01262F30E0C9018132910571
:1010D00014F080E290E084830895FC0184810895F7
:1010E000FC0183810895FC01858115820895FC012E
:1010F00080818F3F11F420E005C020E081818F3F87
:1011000009F021E0822F0895262F30E08DB79EB799
:1011100008970FB6F8949EBF0FBE8DBFEDB7FEB710
:10112000319680E791E0ADB7BEB712969C938E934F
:1011300011973383228362956F70648315822F70B9
:101140003070378326830E94C0128DB79EB70896F1
:101150000FB6F8949EBF0FBE8DBF089570E08DB797
:101160009EB70E970FB6F8949EBF0FBE8DBFEDB71A
:10117000FEB7319680EA91E0ADB7BEB712969C9368
:101180008E93119773836283CB0156E09695879572
:101190005A95E1F78170907095838483CB0145E087
:1011A000969587954A95E1F781709070978386832D
:1011B000CB0134E0969587953A95E1F78170907070
:1011C00091878087CB0195958795877090709387DD
:1011D000828761707070758764870E94C0128DB7B6
:1011E0009EB70E960FB6F8949EBF0FBE8DBF0895A2
:1011F000FC0180810E947B040895FC0181810E9492
:101200007B040895CF92DF92EF92FF920F931F938A
:10121000CF93DF937C01162F022FD42EC52EFC0115
:10122000818160E00E947B041770812F886A0E9490
:101230007504202F30E0C9019C018132910514F022
:1012400020E230E08D2D9C2DEC018E01020F111D4E
:1012500003C089910E947504C017D107D1F7F70127
:10126000818161E00E947B04DF91CF911F910F91FA
:10127000FF90EF90DF90CF900895FF920F931F9310
:101280008C01FC01818160E00E947B0480E60E9469
:1012900075048FEF0E947504F82EF801818161E0DA
:1012A0000E947B048F2D1F910F91FF9008950F9343
:1012B0001F938C01FC01818160E00E947B0480E52A
:1012C0000E94750483E70E947504F801818161E042
:1012D0000E947B041F910F910895FF920F931F931B
:1012E0008C01FC01818160E00E947B048FEF0E94F1
:1012F0007504F82EF801818161E00E947B048F2D36
:101300001F910F91FF900895FF920F931F938C01EF
:10131000FC01818160E00E947B0481EE0E947504E3
:10132000F82EF801818161E00E947B048F2D1F91CE
:101330000F91FF900895FF920F931F938C01FC0172
:10134000818160E00E947B0482EE0E947504F82E89
:10135000F801818161E00E947B048F2D1F910F9124
:10136000FF9008950F931F938C01FC01808160E032
:101370000E947B04C8010E948409C8010E949B0945
:101380001F910F910895BF92CF92DF92EF92FF923B
:101390000F931F93CF93DF937C01FC015481E52FC2
:1013A000F0E0242F30E0C901E817F9070CF4CF0171
:1013B000C82EF7018681882311F0DD2402C0D52EC6
:1013C000DC18162F072FF701818160E00E947B0453
:1013D00081E60E947504B82E812F902FEC018E01BA
:1013E0000C0D111D04C08FEF0E9475048993C01766
:1013F000D107C9F704C08FEF0E947504DA94DD208D
:10140000D1F7F701818161E00E947B048B2DDF9190
:10141000CF911F910F91FF90EF90DF90CF90BF90F1
:101420000895BF92CF92DF92EF92FF920F931F9396
:10143000CF93DF937C01FC015481E52FF0E0242F52
:1014400030E0C901E817F9070CF4CF01C82EF70105
:101450008681882311F0DD2402C0D52EDC18162FDA
:10146000072FF701818160E00E947B0480EA0E94DF
:101470007504B82E812F902FEC018E010C0D111DDB
:1014800003C089910E947504C017D107D1F704C029
:1014900080E00E947504DA94DD20D1F7F7018181A4
:1014A00061E00E947B048B2DDF91CF911F910F9102
:1014B000FF90EF90DF90CF90BF900895EF92FF9252
:1014C0000F931F937C01162F042FFC01818160E094
:1014D0000E947B041F71812F80620E947504182F67
:1014E000802F0E947504F701818161E00E947B04D6
:1014F000812F1F910F91FF90EF900895CF92DF926F
:10150000EF92FF920F931F938B017A01690167E0BD
:1015100040E70E945E0A982F9072F8019083982FFE
:101520009071F70190838074F60180831F910F9171
:10153000FF90EF90DF90CF900895EF92FF920F937E
:101540001F93CF93DF93EC017B010E946D09182F4D
:10155000082F007486FF15C0E114F10431F090E00B
:10156000959587958770F7018083CE0167E040E409
:101570000E945E0A15FF05C0CE0167E040E20E94AE
:101580005E0A802FDF91CF911F910F91FF90EF9016
:10159000089560E070E00E949D0A0895662319F0A6
:1015A00061E04FE302C061E040E00E945E0A0895FE
:1015B000FC01262F30E0C901AC018038910514F000
:1015C0004FE750E0CF0165E00E945E0A0895262FA4
:1015D0004F702295207F242B64E0422F0E945E0AE8
:1015E0000895EF92FF920F931F93CF93DF937C01A7
:1015F000162FEA01022FFC01818160E00E947B042A
:101600001F71812F80620E947504182F04C0899178
:101610000E94750401500023D1F7F701818161E038
:101620000E947B04812FDF91CF911F910F91FF903A
:10163000EF900895EF92FF920F931F93DF93CF9354
:10164000CDB7DEB728970FB6F894DEBF0FBECDBF7B
:101650007C0109831A832B833C834D835E836F83D4
:1016600078878E010F5F1F4F6AE0A80125E00E9476
:10167000F10AC70160E1A80125E00E94F10AF70123
:10168000248130E0C901AC018132910514F040E2BF
:1016900050E0C70161E10E945E0A28960FB6F894F7
:1016A000DEBF0FBECDBFCF91DF911F910F91FF9095
:1016B000EF900895FF920F931F938C01F62EFC017B
:1016C000818160E00E947B048F2D8F710E947504E0
:1016D0008FEF0E947504F82EF801818161E00E946D
:1016E0007B048F2D1F910F91FF90089569E00E9458
:1016F0005A0B8170089569E00E945A0B8170089519
:101700000F931F938C0160E00E945A0B482F426098
:10171000C80160E00E945E0A1F910F9108950F9327
:101720001F938C0160E00E945A0B482F4D7FC80127
:1017300060E00E945E0A1F910F9108950F931F931E
:101740008C0160E00E945A0B482F477FC80160E07F
:101750000E945E0A1F910F91089560E00E945A0B4B
:101760008C7083FD02C080E0089582FD02C081E09C
:10177000089582E008951F93CF93DF93EC01162F15
:1017800060E00E945A0B482F437F112329F011304B
:1017900011F4486001C04C60CE0160E00E945E0A16
:1017A000DF91CF911F91089566E00E945A0B982F08
:1017B0009872903211F482E0089580E0983009F434
:1017C00081E008950F931F93CF93DF93EC01162FC1
:1017D00066E00E945A0B1A82082F077D123011F41E
:1017E000006206C0113019F41A83086001C01A8221
:1017F000CE0166E0402F0E945E0ACE0166E00E94A4
:101800005A0B801711F481E002C01A8280E0DF9148
:10181000CF911F910F91089566E00E945A0B867038
:10182000863011F493E008C0843011F492E004C0D3
:1018300090E0823009F491E0892F08951F93CF93AF
:10184000DF93EC01162F66E00E945A0B482F497F68
:10185000133061F0123011F4446009C0113011F4FA
:10186000426005C0112319F0143009F44660CE011E
:1018700066E00E945E0ADF91CF911F9108950F9359
:101880001F93CF93DF93EC01162F042F6730F0F4F2
:1018900061E00E945A0B282F002351F081E090E074
:1018A00002C0880F991F1A95E2F7422F482B0AC0F1
:1018B00081E090E002C0880F991F1A95E2F7482F47
:1018C00040954223CE0161E00E945E0ADF91CF91F4
:1018D0001F910F910895CF93DF93EC016DE10E946A
:1018E0005A0B482F4460CE016DE10E945E0ACE0182
:1018F0006DE10E945A0B882369F4CE010E945709BA
:10190000CE016DE10E945A0B482F4460CE016DE17B
:101910000E945E0ACE016CE10E945A0B482F4F6371
:10192000CE016CE10E945E0A81E08E83DF91CF914F
:101930000895CF93DF93EC016DE10E945A0B482F7D
:101940004460CE016DE10E945E0ACE016DE10E940D
:101950005A0B882369F4CE010E945709CE016DE12C
:101960000E945A0B482F4460CE016DE10E945E0A2E
:10197000CE016CE10E945A0B482F4F63CE016CE1FF
:101980000E945E0A81E08E83DF91CF910895BF921D
:10199000CF92DF92EF92FF920F931F93DF93CF933B
:1019A000CDB7DEB728970FB6F894DEBF0FBECDBF18
:1019B0006C01B62EE982FA820B831C832D833E8351
:1019C0004F835887662389F4F601E0868A818187F0
:1019D0008B8182878C8183878D8184878E818587A7
:1019E0008F8186878885878706C0F6E0F617D0F155
:1019F00081E0681759F4EB2DF0E0ED52FD4FC60180
:101A00006081AE014F5F5F4F25E00AC0E62FF0E036
:101A1000ED52FD4FC6016081AE014F5F5F4F21E087
:101A20000E94F10A0B2D10E0F801E752FD4FC601AC
:101A30006081F60144810E945E0AC60162E00E9454
:101A40005A0B01521D4F21E030E0F801008002C026
:101A5000220F331F0A94E2F7482F422BC60162E09F
:101A60000E945E0A28960FB6F894DEBF0FBECDBF67
:101A7000CF91DF911F910F91FF90EF90DF90CF906A
:101A8000BF9008950F931F938C010E94C309C80152
:101A900067E10E945A0B81701F910F910895CF92B8
:101AA000DF92FF920F931F93CF93DF936C01042F6C
:101AB000F22EFB0101900020E9F73197E61BF70BAE
:101AC000389708F04BC000D000D000D0EDB7FEB77B
:101AD000319680EF91E0ADB7BEB712969C938E938E
:101AE00011976283738389E090E0958384830E94D9
:101AF000C0128DB79EB706960FB6F8949EBF0FBE64
:101B00008DBF1CC0102F1F5FC601602F0E945A0B93
:101B100000D000D0EDB7FEB73196ADB7BEB7129684
:101B2000DC93CE931197828313820E94C012FA94A1
:101B3000012F0F900F900F900F9002C0C8EFD1E0CF
:101B4000FF2001F780E092E00E94D512DF91CF9153
:101B50001F910F91FF90DF90CF90089500D000D09B
:101B6000EDB7FEB7319682E092E0ADB7BEB7129600
:101B70009C938E931197628373830E94C0120F907F
:101B80000F900F900F90DACFBF92CF92DF92EF922B
:101B9000FF920F931F938C016B01B42E60E00E94A3
:101BA0005A0B482F4C7F4260C80160E00E945E0AD9
:101BB00070EDE72E77E0F72EC7010197F1F7C80126
:101BC000B6014B2D0E94110AF801808161E00E944C
:101BD0007B04C7010197F1F7F801808160E00E9462
:101BE0007B041F910F91FF90EF90DF90CF90BF90FB
:101BF0000895CF93DF93EC01888160E00E947B041D
:101C0000898161E00E947B0480E197E20197F1F70E
:101C1000CE0164E04FE40E945E0ACE0163E00E94C0
:101C20001E0CCE0162E00E94E20B882311F081E0DD
:101C30008B83CE0160E00E94E20BCE0162E00E9445
:101C4000BB0BCE016CE140E00E945E0ACE0167E072
:101C500040E70E945E0ACE016CE40E94D80ACE01E1
:101C60000E949B09CE010E948409DF91CF910895C3
:101C7000CF93DF93EC0160E00E945A0B482F436042
:101C8000CE0160E00E945E0ACE0167E040E70E945C
:101C90005E0A88859985892B9A85892B9B85892B56
:101CA0009C85892B9D85892B9E85892B9F85892BDA
:101CB00041F0AE01485F5F4FCE016AE025E00E942F
:101CC000F10ACE010E949B09CE010E9484098881FD
:101CD00061E00E947B0480ED97E00197F1F7DF91CE
:101CE000CF910895EF92FF920F931F93CF93DF93BD
:101CF0007C01162FEA01022FFC01818160E00E9425
:101D00007B04812F8F710E947504182F05C08FEFFF
:101D10000E947504899301500023C9F7F70181815E
:101D200061E00E947B04812FDF91CF911F910F9181
:101D3000FF90EF900895AF92BF92CF92DF92EF9213
:101D4000FF920F931F93DF93CF9300D00F92CDB7E5
:101D5000DEB78C010E94C40D0E947E046B017C01E1
:101D60005E010894A11CB11CC80168E0A50121E036
:101D70000E94720E807331F50E947E046C197D09F9
:101D80008E099F09645F714080409040D8F4ECCF89
:101D9000C8010E943D09F8018783C8010E948F0B8A
:101DA000C8010E9484098F2D0F900F900F90CF9142
:101DB000DF911F910F91FF90EF90DF90CF90BF9038
:101DC000AF90089598012B5F3F4FC801BE016E5F31
:101DD0007F4FAE014D5F5F4F0E947E0AFA80F8018F
:101DE00085818823D1F2D4CF4F925F926F927F92F8
:101DF0008F929F92AF92BF92CF92DF92EF92FF921B
:101E00000F931F93DF93CF9300D000D00F92CDB7E5
:101E1000DEB72C01E42EF22EFB0101900020E9F741
:101E20003197E61BF70B389708F086C000D000D03A
:101E300000D0EDB7FEB7319680EF91E0ADB7BEB7F9
:101E400012969C938E9311976283738389E090E03E
:101E5000958384830E94C012EDB7FEB736960FB605
:101E6000F894FEBF0FBEEDBF00D088E092E0ADB7A2
:101E7000BEB712969C938E9311970E94C0120F903A
:101E80000F903E010894611C711CACE08A2EA2E008
:101E90009A2EF6E0AF2EB12CAC0EBD1EE0E1CE2E98
:101EA000E2E0DE2E2DC0C2016E2DA30125E00E94CE
:101EB000720E00D0EDB7FEB7928281820E94C012EE
:101EC00085010F900F9015C000D000D0EDB7FEB780
:101ED0003196ADB7BEB71296DC92CE921197D8016B
:101EE0008C91828313820E94C0120F900F900F90EA
:101EF0000F90015010400C171D0731F7E394FA942E
:101F0000FF2089F680E092E00E94D5120F900F909A
:101F10000F900F900F90CF91DF911F910F91FF9035
:101F2000EF90DF90CF90BF90AF909F908F907F9079
:101F30006F905F904F90089500D000D0EDB7FEB73E
:101F4000319682E092E0ADB7BEB712969C938E9325
:101F50001197628373830E94C0120F900F900F90AD
:101F60000F9082CF0F931F938C010E946D09682FF1
:101F7000C8010E94AE08C80165E172E04AE022E0B3
:101F80000E94F40EC80162E272E04CE024E00E947C
:101F90004F0DC8016FE272E040E121E00E94F40EB3
:101FA000C80167E372E041E126E00E944F0DC801DD
:101FB00062E472E041E021E00E944F0DC80168E454
:101FC00072E042E021E00E944F0DC80162E572E03C
:101FD00045E021E00E944F0DC80168E572E046E04F
:101FE00021E00E944F0DC80161E672E040E021E06F
:101FF0000E944F0DC80168E672E04CE122E00E94A9
:102000004F0DC8010E94D40B00D000D026E732E06B
:10201000ADB7BEB712963C932E931197E82FF0E020
:10202000EE0FFF1FE554FD4F8081918114969C9324
:102030008E9313970E94C01288E892E0EDB7FEB726
:1020400092838183D8011396EC91F0E0EE0FFF1F8D
:10205000EF53FD4F80819181EDB7FEB79483838369
:102060000E94C0120F900F900F900F90C8010E9415
:10207000AD0B00D000D027E932E0ADB7BEB7129665
:102080003C932E931197E82FF0E0EE0FFF1FEB53D8
:10209000FD4F8081918114969C938E9313970E949B
:1020A000C0120F900F900F900F90C8010E940C0C5F
:1020B00000D000D02AEA32E0EDB7FEB732832183A8
:1020C000E82FF0E0EE0FFF1FE553FD4F8081918177
:1020D000ADB7BEB714969C938E9313970E94C0120F
:1020E0000F900F900F900F901F910F910895D9D0DE
:1020F00008F481E008950CD00FC107D140F0FED064
:1021000030F021F45F3F19F0F0C0511139C1F3C034
:1021100014D198F39923C9F35523B1F3951B550BAB
:10212000BB27AA2762177307840738F09F5F5F4FAA
:10213000220F331F441FAA1FA9F333D00E2E3AF0EB
:10214000E0E830D091505040E695001CCAF729D005
:10215000FE2F27D0660F771F881FBB1F2617370754
:102160004807AB07B0E809F0BB0B802DBF01FF2784
:1021700093585F4F2AF09E3F510568F0B6C000C1EA
:102180005F3FECF3983EDCF3869577956795B795BE
:10219000F7959F5FC9F7880F911D9695879597F9D9
:1021A0000895E1E0660F771F881FBB1F6217730752
:1021B0008407BA0720F0621B730B840BBA0BEE1F67
:1021C00088F7E095089504D06894B111D9C00895B6
:1021D000BCD088F09F5790F0B92F9927B751A0F045
:1021E000D1F0660F771F881F991F1AF0BA95C9F7AB
:1021F00012C0B13081F0C3D0B1E00895C0C0672FE4
:10220000782F8827B85F39F0B93FCCF3869577955A
:102210006795B395D9F73EF4909580957095619543
:102220007F4F8F4F9F4F0895E89409C097FB3EF46E
:1022300090958095709561957F4F8F4F9F4F992313
:10224000A9F0F92F96E9BB279395F6958795779591
:102250006795B795F111F8CFFAF4BB0F11F460FF51
:102260001BC06F5F7F4F8F4F9F4F16C0882311F0A9
:1022700096E911C0772321F09EE8872F762F05C0BD
:10228000662371F096E8862F70E060E02AF09A9558
:10229000660F771F881FDAF7880F9695879597F94D
:1022A0000895990F0008550FAA0BE0E8FEEF1616E7
:1022B0001706E807F907C0F012161306E407F5073A
:1022C00098F0621B730B840B950B39F40A2661F0AE
:1022D000232B242B252B21F408950A2609F4A14051
:1022E000A6958FEF811D811D089597F99F6780E85E
:1022F00070E060E008959FEF80EC089500240A9458
:102300001616170618060906089500240A941216D0
:102310001306140605060895092E0394000C11F403
:10232000882352F0BB0F40F4BF2B11F460FF04C0B0
:102330006F5F7F4F8F4F9F4F089557FD9058440F09
:10234000551F59F05F3F71F04795880F97FB991F14
:1023500061F09F3F79F087950895121613061406D1
:10236000551FF2CF4695F1DF08C01616170618065E
:10237000991FF1CF86957105610508940895E89439
:10238000BB2766277727CB0197F908958ADF08F4E2
:102390008FEF08950BD0C0CFB1DF28F0B6DF18F073
:1023A000952309F0A2CFA7CF1124EACFC6DFA0F36F
:1023B000959FD1F3950F50E0551F629FF001729FDA
:1023C000BB27F00DB11D639FAA27F00DB11DAA1FF9
:1023D000649F6627B00DA11D661F829F2227B00D46
:1023E000A11D621F739FB00DA11D621F839FA00DD1
:1023F000611D221F749F3327A00D611D231F849F21
:10240000600D211D822F762F6A2F11249F57504077
:102410008AF0E1F088234AF0EE0FFF1FBB1F661F12
:10242000771F881F91505040A9F79E3F510570F0CB
:102430005CCFA6CF5F3FECF3983EDCF386957795B3
:102440006795B795F795E7959F5FC1F7FE2B880FC6
:10245000911D9695879597F90895629FD001739F76
:10246000F001829FE00DF11D649FE00DF11D929F30
:10247000F00D839FF00D749FF00D659FF00D99276F
:10248000729FB00DE11DF91F639FB00DE11DF91F93
:10249000BD01CF0111240895A1E21A2EAA1BBB1B76
:1024A000FD010DC0AA1FBB1FEE1FFF1FA217B30720
:1024B000E407F50720F0A21BB30BE40BF50B661F36
:1024C000771F881F991F1A9469F7609570958095FA
:1024D00090959B01AC01BD01CF010895EE0FFF1F48
:1024E0000590F491E02D09940F931F93CF93DF9300
:1024F0008C01EB01009731F46115710519F420E0AE
:1025000030E038C081E090E06EE070E00E94E714B7
:10251000FC019C01009771F180E88383209771F0A2
:10252000D387C28781E8838380911804909119042E
:10253000892B21F4F0931904E09318040115110577
:10254000C9F01187008783818260838380911A0498
:1025500090911B04892B71F4F0931B04E0931A04EF
:1025600080911C0490911D04892B21F4F0931D048B
:10257000E0931C04C901DF91CF911F910F91089541
:10258000A0E0B0E0E6ECF2E10C94BF16FE01359657
:102590006191719180911A0490911B04AF010E9486
:1025A0000A132096E2E00C94DB160F931F93CF934F
:1025B000DF938C01E0911A04F0911B04838181FF69
:1025C00021C0C0E0D0E00DC0E0911A04F0911B04DE
:1025D00020853185BF01F9010995892B11F0CFEFD5
:1025E000DFEFF80181918F01882371F7E0911A04E0
:1025F000F0911B04208531858AE0BF01F90109951E
:10260000892B11F0CFEFDFEFCE01DF91CF911F913A
:102610000F910895ABE0B0E0E0E1F3E10C94AF1668
:102620003C012B015A01FC0117821682838181FD36
:1026300003C06FEF7FEFC6C19AE0892E1E01089498
:10264000211C311CF3012381F20123FD859123FF1D
:1026500081912F01882309F4B2C1853239F423FD19
:10266000859123FF81912F01853229F490E0B301F8
:102670000E942516E7CF982FFF24EE249924FFE12E
:10268000FF15D0F09B3269F09C3228F4903259F05B
:10269000933291F40EC09D3249F0903369F441E0D9
:1026A00024C052E0F52A84E0F82A28C098E0F92AEC
:1026B00025C0E0E1FE2A22C0F7FC29C0892F805303
:1026C0008A3070F4F6FE05C0989C902C1124980E68
:1026D00015C0E89CE02C1124E80EF0E2FF2A0EC0A1
:1026E0009E3229F4F6FC6BC140E4F42A07C09C3604
:1026F00019F450E8F52A02C0983649F4F20123FD96
:10270000959123FF91912F01992309F0B8CF892F3B
:102710008554833018F08052833038F444E050E020
:10272000A40EB51E5FE359830FC0933631F0933783
:1027300079F0933509F056C020C0F5018081898376
:1027400042E050E0A40EB51E610101E010E012C0AD
:10275000F501C080D180F6FC03C06FEF7FEF02C0AF
:10276000692D70E042E050E0A40EB51EC6010E9443
:102770001A168C015FE7F52214C0F501C080D180E4
:10278000F6FC03C06FEF7FEF02C0692D70E042E0FE
:1027900050E0A40EB51EC6010E9408168C0150E838
:1027A000F52AF3FE07C01AC080E290E0B3010E9450
:1027B0002516EA948E2D90E008171907A8F30EC08D
:1027C000F601F7FC8591F7FE81916F0190E0B3016E
:1027D0000E942516E110EA940150104001151105E0
:1027E00079F7EAC0943611F0993669F5F7FE08C01A
:1027F000F501208131814281538184E090E00AC05B
:10280000F501808191819C01442737FD4095542F2B
:1028100082E090E0A80EB91E9FE6F92257FF09C09A
:1028200050954095309521953F4F4F4F5F4FE0E8D1
:10283000FE2ACA01B901A1012AE030E00E94511626
:10284000D82ED21840C0953729F41F2D1F7E2AE0BC
:1028500030E01DC01F2D197F9F3661F0903720F4A6
:10286000983509F0ACC00FC0903739F0983709F0AF
:10287000A6C004C028E030E00AC0106114FD146056
:1028800020E130E004C014FD166020E132E017FFC3
:1028900008C0F501608171818281938144E050E03C
:1028A00008C0F50180819181BC0180E090E042E0A8
:1028B00050E0A40EB51EA1010E945116D82ED218C8
:1028C0008FE7F82EF122F6FE0BC05EEFF522D91449
:1028D00038F4F4FE07C0F2FC05C08FEEF82202C007
:1028E0001D2D01C0192DF4FE0DC0FE01ED0DF11DD1
:1028F0008081803319F499EEF92208C01F5FF2FE3F
:1029000005C003C08F2D867809F01F5F0F2DF3FCE3
:1029100014C0F0FE0FC01E1510F09D2C0BC09D2C96
:102920009E0C911A1E2D06C080E290E0B3010E9419
:1029300025161F5F1E15C0F304C01E1510F4E11A02
:1029400001C0EE2404FF0FC080E390E0B3010E94B9
:10295000251602FF1DC001FD03C088E790E00EC0F0
:1029600088E590E00BC0802F867891F001FF02C0CF
:102970008BE201C080E2F7FC8DE290E0B3010E949F
:10298000251606C080E390E0B3010E9425169A94B4
:10299000D914C0F3DA94F101ED0DF11D808190E0BE
:1029A000B3010E942516DD20A9F706C080E290E061
:1029B000B3010E942516EA94EE20C1F743CEF3013D
:1029C00066817781CB012B96E2E10C94CB160F93B5
:1029D0001F93CF93DF93689F8001699F100D789FAD
:1029E000100D1124C8010E940315EC01009729F075
:1029F00060E070E0A8010E941316CE01DF91CF9134
:102A00001F910F910895CF93DF93BC018230910500
:102A100010F462E070E0A0912004B0912104ED0177
:102A2000E0E0F0E040E050E021C088819981861725
:102A3000970769F48A819B81309719F09383828389
:102A400004C09093210480932004FE0134C06817D1
:102A5000790738F44115510519F08417950708F4E2
:102A6000AC01FE018A819B819C01E9012097E9F676
:102A700041155105A9F1CA01861B970B049708F46B
:102A8000BA01E0E0F0E02AC08D919C911197841783
:102A90009507F9F46417750781F412968D919C914E
:102AA0001397309719F09383828304C09093210485
:102AB00080932004FD0132964FC0CA01861B970BFC
:102AC000FD01E80FF91F6193719302978D939C9319
:102AD00043C0FD01828193819C01D9011097A1F629
:102AE00080911E0490911F04892B41F4809143032F
:102AF0009091440390931F0480931E0440914503DA
:102B0000509146034115510541F44DB75EB7809190
:102B1000410390914203481B590B20911E043091B0
:102B20001F0424173507B0F4CA01821B930B8617C4
:102B3000970780F0AB014E5F5F4F8417950750F009
:102B4000420F531F50931F0440931E04F9016193D9
:102B5000719302C0E0E0F0E0CF01DF91CF910895E2
:102B6000CF93DF93009709F450C0EC0122971B82AA
:102B70001A82A0912004B0912104109709F140E03D
:102B800050E0AC17BD0708F1BB83AA83FE01219179
:102B90003191E20FF31FAE17BF0779F48D919C912D
:102BA0001197280F391F2E5F3F4F398328831296C4
:102BB0008D919C9113979B838A834115510571F4E4
:102BC000D0932104C093200420C012968D919C9133
:102BD0001397AD01009711F0DC01D3CFFA01D38335
:102BE000C28321913191E20FF31FCE17DF0769F401
:102BF00088819981280F391F2E5F3F4FFA01318359
:102C000020838A819B8193838283DF91CF91089572
:102C1000FC010590615070400110D8F780959095A7
:102C20008E0F9F1F0895DC0101C06D9341505040ED
:102C3000E0F70895FC016150704001900110D8F751
:102C4000809590958E0F9F1F08950F931F93CF939C
:102C5000DF938C01EB018B8181FF1BC082FF0DC0D4
:102C60002E813F818C819D812817390764F4E8818A
:102C7000F9810193F983E88306C0E885F985802FFF
:102C80000995892B31F48E819F8101969F838E83D4
:102C900002C00FEF1FEFC801DF91CF911F910F917D
:102CA0000895FA01AA27283051F1203181F1E894E2
:102CB0006F936E7F6E5F7F4F8F4F9F4FAF4FB1E02F
:102CC0003ED0B4E03CD0670F781F891F9A1FA11D2A
:102CD000680F791F8A1F911DA11D6A0F711D811D2B
:102CE000911DA11D20D009F468943F912AE0269FF0
:102CF00011243019305D3193DEF6CF010895462F4F
:102D00004770405D4193B3E00FD0C9F7F6CF462F2F
:102D10004F70405D4A3318F0495D31FD4052419398
:102D200002D0A9F7EACFB4E0A69597958795779555
:102D30006795BA95C9F700976105710508959B01DC
:102D4000AC010A2E06945795479537952795BA9565
:102D5000C9F7620F731F841F951FA01D08952F923E
:102D60003F924F925F926F927F928F929F92AF921B
:102D7000BF92CF92DF92EF92FF920F931F93CF9368
:102D8000DF93CDB7DEB7CA1BDB0B0FB6F894DEBFFF
:102D90000FBECDBF09942A88398848885F846E8425
:102DA0007D848C849B84AA84B984C884DF80EE806F
:102DB000FD800C811B81AA81B981CE0FD11D0FB678
:102DC000F894DEBF0FBECDBFED010895F894FFCF9C
:102DD0005044300050443100426175647261746542
:102DE000203A2039363030200A55425252203D20B8
:102DF00025640A53657420426175647261746520AC
:102E00003A2025640A005374617274210A00496EE5
:102E100069740A00566F6C74616765203D202564F3
:102E20002064656C74613A256420616E676C653A54
:102E30002564202025642F2564200A00200300003B
:102E40004F4253455256455F54583D3078253032F5
:102E5000783A20504F4C535F434E543D307825789C
:102E6000204152435F434E543D307825780D0A008F
:102E70005354415455530909203D203078253032B0
:102E8000782052585F44523D307825782054585F5E
:102E900044533D30782578204D41585F52543D30A1
:102EA0007825782052585F505F4E4F3D3078257816
:102EB0002054585F46554C4C3D307825780D0A001B
:102EC0002573092563203D002030782530327800B5
:102ED0000D00257309203D00203A200020307800A5
:102EE000253032780052585F414444525F50302DB3
:102EF000310052585F414444525F50322D350054E6
:102F0000585F414444520052585F50575F50302D33
:102F10003600454E5F414100454E5F5258414444A2
:102F2000520052465F43480052465F534554555045
:102F300000434F4E4649470044594E50442F4645A2
:102F400041545552450044617461205261746509D1
:102F5000203D2025730D0A004D6F64656C09092022
:102F60003D2025730D0A00435243204C656E677463
:102F70006809203D2025730D0A00504120506F77CD
:102F8000657209203D2025730D0A00E502EB02F170
:102F900002F90202030C0315031C0324032B033262
:102FA0000339030A0B0C0D0E0F1112131415160022
:102FB0000102030405314D42505300324D4250533B
:102FC000003235304B425053006E524632344C3052
:102FD00031006E524632344C30312B0044697361FB
:102FE000626C656400382062697473003136206257
:102FF0006974730050415F4D494E0050415F4C4F22
:1030000057004C415F4D45440050415F4849474897
:08301000002000220400000072
:00000001FF
